{
  "_format": "hh3-artifact-1",
  "contractName": "TestVerification",
  "sourceName": "contracts/TestVerification.sol",
  "abi": [
    {
      "inputs": [],
      "stateMutability": "nonpayable",
      "type": "constructor"
    },
    {
      "inputs": [],
      "name": "deployTime",
      "outputs": [
        {
          "internalType": "uint256",
          "name": "",
          "type": "uint256"
        }
      ],
      "stateMutability": "view",
      "type": "function"
    },
    {
      "inputs": [],
      "name": "getMessage",
      "outputs": [
        {
          "internalType": "string",
          "name": "",
          "type": "string"
        }
      ],
      "stateMutability": "pure",
      "type": "function"
    },
    {
      "inputs": [],
      "name": "name",
      "outputs": [
        {
          "internalType": "string",
          "name": "",
          "type": "string"
        }
      ],
      "stateMutability": "view",
      "type": "function"
    }
  ],
  "bytecode": "0x60a060405234801561001057600080fd5b50615b256080526080516101906100316000398061011052506101906000f3fe608060405234801561001057600080fd5b50600436106100415760003560e01c806306fdde03146100465780637a40624b146100c3578063ce6d41de146100dd575b600080fd5b61004e6100e5565b6040805160208082528351818301528351919283929083019185019080838360005b83811015610088578181015183820152602001610070565b50505050905090810190601f1680156100b55780820380516001836020036101000a031916815260200191505b509250505060405180910390f35b6100cb61010e565b60408051918252519081900360200190f35b61004e610132565b6040518060400160405280600d81526020016c15195cdd0810dbdb9d1c9858dd609a1b81525081565b7f000000000000000000000000000000000000000000000000000000000000000081565b60408051808201909152600e81526d48656c6c6f20436f6e666c75782160901b60208201529056fea26469706673582212206bfc22efa8bae4adc0750d3361e2f2ebe8777dbefd36697f0dfc4284ef802c2964736f6c63430007060033",
  "linkReferences": {},
  "deployedLinkReferences": {},
  "immutableReferences": {
    "6": [
      {
        "length": 32,
        "start": 272
      }
    ]
  },
  "inputSourceName": "project/contracts/TestVerification.sol",
  "buildInfoId": "solc-0_7_6-737715cf5433b23b1f2ec94a5646a057554c47eb"
}